:020000040800F2
:1000000000500020B115000821050008290500084E
:10001000310500083905000841050008000000000E
:10002000000000000000000000000000490500087A
:100030005505000800000000610500086D05000876
:10004000F9150008F9150008F9150008F915000858
:10005000F9150008F9150008F9150008F915000848
:10006000F9150008F9150008F9150008F915000838
:10007000F9150008F9150008F9150008F915000828
:10008000F9150008F9150008F9150008F915000818
:10009000F9150008F9150008F9150008F915000808
:1000A000F9150008F9150008F9150008F9150008F8
:1000B000F9150008F9150008F9150008F9150008E8
:1000C000F9150008F9150008F9150008F9150008D8
:1000D000F9150008F9150008F9150008F9150008C8
:1000E000F9150008F9150008F915000800000000CE
:1000F0000000000000000000000000000000000000
:0C01000000000000000000005FF808F1A3
:10010C0000F1340191E838009C46A6464CF8045D99
:10011C0090E8FF0FE54600BD90EC210B704700BF47
:10012C0080EC210B704700BF90EC200B704700BF98
:10013C0080EC200B704700BFD0EC200B704700BF49
:10014C00C0EC200B704700BFF0EC0201F0EC021188
:10015C00F0EC0221F0EC0231F0EC0241F0EC025137
:10016C00F0EC0261F0EC0271F0EC0281F0EC029127
:10017C00F0EC02A1F0EC02B1F0EC02C1F0EC02D117
:10018C00F0EC02E1F0EC02F1704700BFE0EC020190
:10019C00E0EC0211E0EC0221E0EC0231E0EC024177
:1001AC00E0EC0251E0EC0261E0EC0271E0EC028167
:1001BC00E0EC0291E0EC02A1E0EC02B1E0EC02C157
:1001CC00E0EC02D1E0EC02E1E0EC02F1704700BFA0
:1001DC00B0FC0181B0FC0191B0FC01A1B0FC01B1FB
:1001EC00704700BFA0FC0181A0FC0191A0FC01A103
:1001FC00A0FC01B1704700BFEC4600B52DE90050E2
:10020C002DE9FF1F4FF000032DE90C0001A901F0AF
:10021C0077FBDDF840E012B0704700BFEC4600B54C
:10022C002DE900502DE9FF1F4FF000032DE90C00C4
:10023C0001A901F0A5FBDDF840E012B0704700BF4A
:10024C00EC4600B52DE900502DE9FF1F4FF00003DF
:10025C002DE90C0001A901F0B3FBDDF840E012B070
:10026C00704700BFEC4600B52DE900502DE9FF1F8B
:10027C004FF000032DE90C0001AB01F075FBDDF82C
:10028C0040E012B0704700BFEC4600B52DE90050BD
:10029C002DE9FF1F4FF000032DE90C0001AA01F01E
:1002AC00E5FBDDF840E012B0704700BF0348044B9B
:1002BC00834202D0034B03B1184770470C00002057
:1002CC000C000020000000000548064B1B1AD90F3B
:1002DC0001EBA301491002D0034B03B1184770473F
:1002EC000C0000200C0000200000000010B5064C93
:1002FC00237843B9FFF7DAFF044B13B10448AFF38B
:10030C0000800123237010BD0C00002000000000B1
:10031C007023000808B5054B1BB105490548AFF320
:10032C000080BDE80840FFF7CFBF00BF0000000011
:10033C00100000207023000880B500AF00F008FA10
:10034C0000F008F800F078F800F040F801F01EF921
:10035C0000BFFDE780B590B000AF07F1180328226D
:10036C000021184601F043F93B1D00221A605A6027
:10037C009A60DA601A610223BB610123BB6210230D
:10038C00FB6200237B6307F11803184600F066FA42
:10039C000346002B01D000F0B7F80F237B6000233D
:1003AC00BB600023FB6000233B6100237B613B1D92
:1003BC000021184600F0D4FC0346002B01D000F0BD
:1003CC00A3F800BF4037BD4680BD000080B500AF2C
:1003DC00174B184A1A60164B4FF482725A60144B22
:1003EC0000229A60124B0022DA60114B00221A6133
:1003FC000F4B00225A610E4B4FF400729A610C4B5A
:10040C000822DA610A4B00221A62094B00225A6256
:10041C00074B00229A62064B0A22DA62044800F06B
:10042C0013F90346002B01D000F06EF800BF80BD1D
:10043C00280000200038004080B588B000AF07F1DC
:10044C00100300221A605A609A60DA602B4B9B6989
:10045C002A4A43F010039361284B9B6903F0100365
:10046C00FB60FB68254B9B69244A43F008039361AE
:10047C00224B9B6903F00803BB60BB681F4B9B6955
:10048C001E4A43F0040393611C4B9B6903F0040365
:10049C007B607B6801224FF40051194800F04AFF41
:1004AC0001224FF48071174800F044FF00224FF4F2
:1004BC000071144800F03EFF4FF400533B610123E0
:1004CC007B610023BB610223FB6107F1100319461A
:1004DC000B4800F0ABFD4FF440733B6101237B6193
:1004EC000023BB610223FB6107F110031946054889
:1004FC0000F09CFD00BF2037BD4680BD00100240BF
:10050C00001001400008014080B400AF72B600BF7B
:10051C0000BFFDE780B400AF00BFFDE780B400AFC3
:10052C0000BFFDE780B400AF00BFFDE780B400AFB3
:10053C0000BFFDE780B400AF00BFFDE780B400AFA3
:10054C0000BFBD4680BC704780B400AF00BFBD4645
:10055C0080BC704780B400AF00BFBD4680BC704704
:10056C0080B500AF00F03AF900BF80BD80B483B015
:10057C0000AF0E4B9B690D4A43F0010393610B4B8B
:10058C009B6903F001037B607B68084BDB69074ABE
:10059C0043F08053D361054BDB6903F080533B6020
:1005AC003B6800BF0C37BD4680BC70470010024052
:1005BC0080B588B000AF786007F1100300221A6094
:1005CC005A609A60DA607B681B681C4A934231D18E
:1005DC001B4BDB691A4A43F48043D361184BDB692C
:1005EC0003F48043FB60FB68154B9B69144A43F092
:1005FC0008039361124B9B6903F00803BB60BB6853
:10060C004FF420433B6102237B610323FB6107F121
:10061C00100319460B4800F009FD4FF480433B6171
:10062C0000237B610023BB6107F1100319460548C9
:10063C0000F0FCFC00BF2037BD4680BD00380040F8
:10064C0000100240000C014080B582B000AF786011
:10065C007B68002B01D1012376E07B685B6A002B61
:10066C0008D17B685B68B3F5827F09D07B68002278
:10067C00DA6105E07B6800221A617B6800225A610E
:10068C007B6800229A627B6893F85130DBB2002BB6
:10069C0006D17B68002283F850207868FFF788FF2A
:1006AC007B68022283F851207B681B681A687B6880
:1006BC001B6822F040021A607B685B6803F482724C
:1006CC007B689B6803F404431A437B68DB6803F480
:1006DC0000631A437B681B6903F002031A437B68AF
:1006EC005B6903F001031A437B689B6903F4007395
:1006FC001A437B68DB6903F038031A437B681B6A77
:10070C0003F0800342EA03017B689B6A03F4005206
:10071C007B681B680A431A607B689B691A0C7B68B0
:10072C001B6802F004025A607B681B68DA697B68FC
:10073C001B6822F40062DA617B6800225A657B68D0
:10074C00012283F85120002318460837BD4680BD8E
:10075C0080B500AF084B1B68074A43F010031360C9
:10076C00032000F0C9FE0F2000F008F8FFF7FEFE92
:10077C000023184680BD00BF0020024080B582B027
:10078C0000AF7860124B1A68124B1B7819464FF465
:10079C007A73B3FBF1F3B2FBF3F3184600F0D3FE1C
:1007AC000346002B01D001230EE07B680F2B0AD8E7
:1007BC00002279684FF0FF3000F0A9FE064A7B68F2
:1007CC001360002300E0012318460837BD4680BDA6
:1007DC0008000020040000200000002080B400AFBE
:1007EC00054B1B781A46054B1B681344034A1360D0
:1007FC0000BFBD4680BC7047040000208000002074
:10080C0080B400AF024B1B681846BD4680BC7047D5
:10081C008000002080B584B000AF7860FFF7F0FF57
:10082C00B8607B68FB60FB68B3F1FF3F05D00A4BF7
:10083C001B781A46FB681344FB6000BFFFF7E0FF10
:10084C000246BB68D31AFA689A42F7D800BF00BFB9
:10085C001037BD4680BD00BF0400002080B586B0B7
:10086C0000AF78607B68002B01D1012372E27B68BA
:10087C001B6803F00103002B00F08780924B5B6830
:10088C0003F00C03042B0CD08F4B5B6803F00C03B0
:10089C00082B12D18C4B5B6803F48033B3F5803F8B
:1008AC000BD1894B1B6803F40033002B6CD07B6895
:1008BC005B68002B68D101234CE27B685B68B3F565
:1008CC00803F06D1804B1B687F4A43F48033136012
:1008DC002EE07B685B68002B0CD17B4B1B687A4A43
:1008EC0023F480331360784B1B68774A23F48023FE
:1008FC0013601DE07B685B68B3F5A02F0CD1724BC5
:10090C001B68714A43F4802313606F4B1B686E4A5B
:10091C0043F4803313600BE06B4B1B686A4A23F47F
:10092C0080331360684B1B68674A23F48023136081
:10093C007B685B68002B13D0FFF762FF386108E01F
:10094C00FFF75EFF02463B69D31A642B01D90323E0
:10095C0000E25D4B1B6803F40033002BF0D014E075
:10096C00FFF74EFF386108E0FFF74AFF02463B698C
:10097C00D31A642B01D90323ECE1534B1B6803F40A
:10098C000033002BF0D100E000BF7B681B6803F044
:10099C000203002B63D04C4B5B6803F00C03002B61
:1009AC000BD0494B5B6803F00C03082B1CD1464B56
:1009BC005B6803F48033002B16D1434B1B6803F0A8
:1009CC000203002B05D07B681B69012B01D001238E
:1009DC00C0E13D4B1B6823F0F8027B685B69DB00D0
:1009EC00394913430B603AE07B681B69002B20D01C
:1009FC00364B01221A60FFF703FF386108E0FFF75E
:100A0C00FFFE02463B69D31A022B01D90323A1E155
:100A1C002D4B1B6803F00203002BF0D02A4B1B68F4
:100A2C0023F0F8027B685B69DB00274913430B60FA
:100A3C0015E0264B00221A60FFF7E2FE386108E051
:100A4C00FFF7DEFE02463B69D31A022B01D90323C2
:100A5C0080E11D4B1B6803F00203002BF0D17B6877
:100A6C001B6803F00803002B3AD07B689B69002BB2
:100A7C0019D0174B01221A60FFF7C2FE386108E04B
:100A8C00FFF7BEFE02463B69D31A022B01D90323A2
:100A9C0060E10D4B5B6A03F00203002BF0D00120E8
:100AAC0000F0A6FA1CE00A4B00221A60FFF7A8FE21
:100ABC0038610FE0FFF7A4FE02463B69D31A022B04
:100ACC0008D9032346E100BF001002400000424257
:100ADC0080044242924B5B6A03F00203002BE9D183
:100AEC007B681B6803F00403002B00F0A680002336
:100AFC00FB758B4BDB6903F08053002B0DD1884BBE
:100B0C00DB69874A43F08053D361854BDB6903F083
:100B1C008053BB60BB680123FB75824B1B6803F4DD
:100B2C008073002B18D17F4B1B687E4A43F4807373
:100B3C001360FFF765FE386108E0FFF761FE0246BF
:100B4C003B69D31A642B01D9032303E1754B1B6852
:100B5C0003F48073002BF0D07B68DB68012B06D18B
:100B6C006F4B1B6A6E4A43F0010313622DE07B68E6
:100B7C00DB68002B0CD16A4B1B6A694A23F001031A
:100B8C001362674B1B6A664A23F0040313621CE072
:100B9C007B68DB68052B0CD1614B1B6A604A43F008
:100BAC00040313625E4B1B6A5D4A43F0010313623C
:100BBC000BE05B4B1B6A5A4A23F001031362584B40
:100BCC001B6A574A23F0040313627B68DB68002B13
:100BDC0015D0FFF715FE38610AE0FFF711FE02464B
:100BEC003B69D31A41F28832934201D90323B1E015
:100BFC004B4B1B6A03F00203002BEED014E0FFF703
:100C0C00FFFD38610AE0FFF7FBFD02463B69D31A92
:100C1C0041F28832934201D903239BE0404B1B6A7B
:100C2C0003F00203002BEED1FB7D012B05D13C4BD5
:100C3C00DB693B4A23F08053D3617B68DB69002B73
:100C4C0000F08780364B5B6803F00C03082B61D0F7
:100C5C007B68DB69022B46D1334B00221A60FFF70D
:100C6C00CFFD386108E0FFF7CBFD02463B69D31A94
:100C7C00022B01D903236DE0294B1B6803F0007391
:100C8C00002BF0D17B681B6AB3F5803F08D1244B55
:100C9C005B6823F400327B689B68214913434B60EB
:100CAC001F4B5B6823F474127B68196A7B685B6A60
:100CBC000B431B4913434B601B4B01221A60FFF77C
:100CCC009FFD386108E0FFF79BFD02463B69D31A94
:100CDC00022B01D903233DE0114B1B6803F0007379
:100CEC00002BF0D035E0104B00221A60FFF788FD86
:100CFC00386108E0FFF784FD02463B69D31A022BEA
:100D0C0001D9032326E0064B1B6803F00073002B6C
:100D1C00F0D11EE07B68DB69012B07D1012319E0C0
:100D2C000010024000700040600042420B4B5B68B8
:100D3C00FB60FB6803F480327B681B6A9A4206D125
:100D4C00FB6803F470127B685B6A9A4201D0012342
:100D5C0000E0002318461837BD4680BD0010024045
:100D6C0080B584B000AF786039607B68002B01D10E
:100D7C000123D0E06A4B1B6803F007033A689A42E0
:100D8C0010D9674B1B6823F0070265493B68134376
:100D9C000B60634B1B6803F007033A689A4201D05F
:100DAC000123B8E07B681B6803F00203002B20D002
:100DBC007B681B6803F00403002B05D0594B5B6860
:100DCC00584A43F4E06353607B681B6803F00803E4
:100DDC00002B05D0534B5B68524A43F4605353606D
:100DEC00504B5B6823F0F0027B689B684D491343C2
:100DFC004B607B681B6803F00103002B40D07B68C1
:100E0C005B68012B07D1474B1B6803F40033002BA5
:100E1C0015D101237FE07B685B68022B07D1414B26
:100E2C001B6803F00073002B09D1012373E03D4BC9
:100E3C001B6803F00203002B01D101236BE0394B3B
:100E4C005B6823F003027B685B68364913434B6095
:100E5C00FFF7D6FCF8600AE0FFF7D2FC0246FB680D
:100E6C00D31A41F28832934201D9032353E02D4B1C
:100E7C005B6803F00C027B685B689B009A42EBD1C9
:100E8C00274B1B6803F007033A689A4210D2244B95
:100E9C001B6823F0070222493B6813430B60204B6D
:100EAC001B6803F007033A689A4201D0012332E031
:100EBC007B681B6803F00403002B08D0194B5B689C
:100ECC0023F4E0627B68DB68164913434B607B6854
:100EDC001B6803F00803002B09D0124B5B6823F44A
:100EEC0060527B681B69DB000E4913434B6000F0BA
:100EFC0021F802460B4B5B681B0903F00F030A49F0
:100F0C00CB5C22FA03F3094A1360094B1B681846A1
:100F1C00FFF734FC002318461037BD4680BD00BFD8
:100F2C000020024000100240982300080800002016
:100F3C000000002090B48AB000AF294B3C1D0FCBB1
:100F4C0084E80F0040F201233B800023FB61002367
:100F5C00BB6100237B6200237B6100233B62214B3E
:100F6C005B68FB61FB6903F00C03042B02D0082BBC
:100F7C0003D02BE01C4B3B622BE0FB699B0C03F07A
:100F8C000F0328333B4413F8243C7B61FB6903F4C7
:100F9C008033002B12D0134B5B685B0C03F0010306
:100FAC0028333B4413F8283CBB617B690E4A03FB96
:100FBC0002F2BB69B2FBF3F37B6204E07B690B4A80
:100FCC0002FB03F37B627B6A3B6202E0064B3B62F3
:100FDC0000BF3B6A18462837BD4690BC704700BF1F
:100FEC00882300080010024000127A0000093D001E
:100FFC0080B485B000AF78600A4B1B680A4AA2FB2C
:10100C0003235B0A7A6802FB03F3FB6000BFFB68F7
:10101C005A1EFA60002BF9D100BF00BF1437BD4631
:10102C0080BC704708000020D34D621080B48BB098
:10103C0000AF7860396000237B6200233B6269E17A
:10104C0001227B6A02FA03F3FB613B681B68FA69B5
:10105C001340BB61BA69FB699A4240F058813B6806
:10106C005B689A4A93425ED0984A934275D8984AE4
:10107C00934258D0964A93426FD8964A934252D094
:10108C00944A934269D8944A93424CD0924A9342E0
:10109C0063D8924A934246D0904A93425DD8122B21
:1010AC002AD8122B59D801A252F823F03311000878
:1010BC000D1100081F1100086111000867110008CC
:1010CC006711000867110008671100086711000814
:1010DC006711000867110008671100086711000804
:1010EC0067110008671100086711000867110008F4
:1010FC001511000829110008794A934213D02CE0ED
:10110C003B68DB683B6229E03B68DB6804333B628D
:10111C0024E03B68DB6808333B621FE03B68DB681C
:10112C000C333B621AE03B689B68002B02D1042312
:10113C003B6213E03B689B68012B05D108233B62A3
:10114C007B68FA691A6109E008233B627B68FA69DB
:10115C005A6103E000233B6200E000BFBB69FF2B38
:10116C0001D87B6801E07B6804337B61BB69FF2B92
:10117C0002D87B6A9B0002E07B6A083B9B003B61C8
:10118C007B691A680F213B6901FA03F3DB431A40B0
:10119C00396A3B6901FA03F31A437B691A603B68AD
:1011AC005B6803F08053002B00F0B1804D4B9B69C2
:1011BC004C4A43F0010393614A4B9B6903F00103D2
:1011CC00BB60BB68484A7B6A9B08023352F82330E9
:1011DC00FB607B6A03F003039B000F2202FA03F30C
:1011EC00DB43FA681340FB607B68404A934213D0A0
:1011FC007B683F4A93420DD07B683E4A934207D0AE
:10120C007B683D4A934201D1032306E0042304E0AA
:10121C00022302E0012300E000237A6A02F00302B9
:10122C0092009340FA681343FB602F497B6A9B083A
:10123C000233FA6841F823203B685B6803F480337F
:10124C00002B06D02D4B1A682C49BB6913430B603D
:10125C0006E02A4B1A68BB69DB43284913400B6034
:10126C003B685B6803F40033002B06D0234B5A68B1
:10127C002249BB6913434B6006E0204B5A68BB699B
:10128C00DB431E4913404B603B685B6803F48013DF
:10129C00002B06D0194B9A681849BB6913438B6015
:1012AC0006E0164B9A68BB69DB43144913408B600C
:1012BC003B685B6803F40013002B21D00F4BDA68FA
:1012CC000E49BB691343CB6021E000BF0000321014
:1012DC00000031100000221000002110000012103C
:1012EC0000001110001002400000014000080140F5
:1012FC00000C0140001001400014014000040140AA
:10130C000B4BDA68BB69DB4309491340CB607B6A42
:10131C0001337B623B681A687B6A22FA03F3002B69
:10132C007FF48EAE00BF00BF2C37BD4680BC70472B
:10133C000004014080B483B000AF78600B467B8022
:10134C0013467B707B78002B03D07A887B681A61FC
:10135C0003E07B881A047B681A6100BF0C37BD461A
:10136C0080BC704780B485B000AF78600B467B8042
:10137C007B68DB68FB607A88FB6813401A04FB68A7
:10138C00D9437B880B401A437B681A6100BF143722
:10139C00BD4680BC7047000080B485B000AF78605B
:1013AC007B6803F00703FB600C4BDB68BB60BA681F
:1013BC004FF6FF031340BB60FB681A02BB68134374
:1013CC0043F0BF6343F40033BB60044ABB68D36093
:1013DC0000BF1437BD4680BC704700BF00ED00E075
:1013EC0080B400AF044BDB681B0A03F007031846FC
:1013FC00BD4680BC704700BF00ED00E080B483B0F8
:10140C0000AF03463960FB7197F90730002B0ADBFC
:10141C003B68DAB20C4997F907301201D2B20B448F
:10142C0083F800230AE03B68DAB20849FB7903F041
:10143C000F03043B1201D2B20B441A7600BF0C37D7
:10144C00BD4680BC704700BF00E100E000ED00E04D
:10145C0080B489B000AFF860B9607A60FB6803F0C3
:10146C000703FB61FB69C3F10703042B28BF0423AB
:10147C00BB61FB690433062B02D9FB69033B00E01B
:10148C0000237B614FF0FF32BB6902FA03F3DA43AE
:10149C00BB681A407B699A404FF0FF317B6901FAB7
:1014AC0003F3D9437B680B40134318462437BD46DE
:1014BC0080BC704780B582B000AF78607B68013B20
:1014CC00B3F1807F01D301230FE00A4A7B68013B13
:1014DC0053600F214FF0FF30FFF790FF054B0022B8
:1014EC009A60044B07221A60002318460837BD4641
:1014FC0080BD00BF10E000E080B582B000AF786026
:10150C007868FFF749FF00BF0837BD4680BD80B53E
:10151C0086B000AF0346B9607A60FB7300237B6131
:10152C00FFF75EFF78617A68B9687869FFF790FF1A
:10153C00024697F90F3011461846FFF75FFF00BFC0
:10154C001837BD4680BD80B582B000AF7860786832
:10155C00FFF7B0FF034618460837BD4680BD80B480
:10156C0000AF00BFBD4680BC7047000080B582B0A4
:10157C0000AF78604FF400510348FFF7F3FE00BF53
:10158C000837BD4680BD00BF0010014080B582B059
:10159C0000AF3B1D1846FFF7E9FFC820FFF73AF9EB
:1015AC00F7E700000C480D490D4A002302E0D4581F
:1015BC00C4500433C4188C42F9D30A4A0A4C002391
:1015CC0001E013600432A242FBD3FFF7C8FF00F026
:1015DC0017F8FEF7B1FE7047000000200C00002049
:1015EC00602400080C00002084000020FEE7034665
:1015FC000244934200D1704703F8011BF9E7000045
:10160C0070B500260C4D0D4C641BA410A64209D1DC
:10161C0000F0A8FE00260A4D0A4C641BA410A6423A
:10162C0005D170BD55F8043B98470136EEE755F8E7
:10163C00043B98470136F2E7582400085824000868
:10164C00582400085C24000803685A004CBF43F07F
:10165C00004323F000431844704700BF2DE9F843C2
:10166C0041B301F1FF380546164647460024E119FF
:10167C0001EBD171491005EBC1094846FFF7E4FFB6
:10168C00884503464FEAC1020ED002F10800B3426E
:10169C0028440BD8FFF7D8FF0138B04201F1010400
:1016AC00E5D34846BDE8F883B042FAD98C4201D064
:1016BC004F1EDCE74FF000094846BDE8F88300BF39
:1016CC00012807D0022807D0044B00280CBF18466D
:1016DC00002070470248704702487047911D00086F
:1016EC00991D0008A11D000830B5214B044683B09C
:1016FC008D1E13B3284601A9AFF3008088B301995E
:10170C002A46FFF7ABFF014658B3FFF79DFF4B6826
:10171C00A064012B28D0002B20DB081DFFF794FFC1
:10172C00002323650368E064002B0DDBFFF78CFFBF
:10173C0003460020236103B030BD0E4B0E49184602
:10174C00C91AC9100191DBE7C3F30360FFF7B8FFB7
:10175C00034630B10020236103B030BD0123081DC6
:10176C00DFE700230920E5E700230520E2E700BFBF
:10177C0000000000C023000858240008036810B5BE
:10178C00DA07044606D49B0700F1480009D5FEF79A
:10179C00CBFC2368590709D51A070ED5DB0613D5E0
:1017AC0010BDFEF7B9FC23685907F5D404F1D0003D
:1017BC00FEF7C2FC23681A07F0D404F5A870FEF7F4
:1017CC00C3FC2368DB06EBD404F5E870BDE81040DD
:1017DC00FEF7FEBC0346006800B11844704700BF1A
:1017EC00704700BF70B504460E462046316CFFF7BB
:1017FC007BFF054698B9D6F840C0324621460120F9
:10180C002369C4F814C098470828EED0072806D1DD
:10181C002846316CFFF7E4FF301DFEF771FCFFDE4C
:10182C002DE9F0474FF0000AADF5727D0DF10C0E6D
:10183C0001F1040CC768D0F8188006461446BCE8C1
:10184C000F00AEE80F00BCE80F00AEE80F00BCE8DC
:10185C000F00AEE80F009CE80F0002AD8EE80F0001
:10186C00C5F800A021E02B6C4FF4F072294673618F
:10187C007AA800F069FD3146504633697AAA984738
:10188C00889C82466C643346324649460120CDE939
:10189C000058B847044630BB4FF4F07228467AA97A
:1018AC0000F052FDBAF1080F1AD13046296CFFF73F
:1018BC001BFF04F109095FFA89FA04460028D2D00B
:1018CC00A96B3346696432460120CDE900584AF0D1
:1018DC001001B84738B920460DF5727DBDE8F08788
:1018EC00BAF1070F05D0092420460DF5727DBDE82D
:1018FC00F0872046296CFFF773FF03A8FEF700FC66
:10190C00F0B54FF0FF37CB6BF9B00B6401AC01F1C4
:10191C00040C0E460546BCE80F000FC4BCE80F00D3
:10192C000FC4BCE80F000FC49CE80F0084E80F0044
:10193C00009706E06A4629462B6998470828044612
:10194C0008D128461099FFF7CFFE0028F2D00920C5
:10195C0079B0F0BD6846FFF711FF062CF7D1314680
:10196C002846FFF73FFF00BF10B414468461DC6BC0
:10197C00C16000221C64194610BCFFF751BF00BFA8
:10198C0070B54369C6680B64AEB90A460369044670
:10199C000D46014602209847072805D008280ED18D
:1019AC0029462046FFF71EFF3046296CFFF718FF2B
:1019BC00281DFEF7A5FB0122FFF732FFFFDEFFDE3D
:1019CC00C26832B1D1F83CC00022C1F840C0FFF768
:1019DC0027BFFFF795BF00BF012910D009D883B9E5
:1019EC000F2A0ED800EB820252681846009B1A6030
:1019FC007047033901298CBF02200120704708462B
:101A0C0070470220704700BF002300B585B00A461E
:101A1C0003A900911946FFF7DFFF039805B05DF8A5
:101A2C0004FB00BF012910D009D883B90F2A0ED8A6
:101A3C00009900EB8202096818465160704703391F
:101A4C0001298CBF022001207047084670470220F4
:101A5C00704700BF002310B584B003AC0392009410
:101A6C000A461946FFF7DEFF04B010BD70B54FF003
:101A7C00FF36D36BADF50E7D13640DF15C0E02F1E8
:101A8C00040C05460C46BCE80F00AEE80F00BCE8A1
:101A9C000F00AEE80F00BCE80F00AEE80F009CE8AA
:101AAC000F008EE80F00169612E00C2116A86A465D
:101ABC00FFF7D0FF214616A8A84778B96946082039
:101ACC00049B16AA98470528064608D0092805D075
:101ADC0068462699FFF708FE0028E6D0092616A8C6
:101AEC00FFF74CFE30460DF50E7D70BD2DE9F04F25
:101AFC009346CA6C0D4652F8041B89B000F0030CD7
:101B0C000692002B79D002240E0C8DF81D6009046E
:101B1C00F6B2059102EB86022F6DBCF1020F08BFE5
:101B2C00AA6B17F001078DF81C400CD0584605A97C
:101B3C0000F0A0FA18B9082009B0BDE8F08F092010
:101B4C0009B0BDE8F08F1668002EEFD0B1466446A0
:101B5C009A4600F0080101910297BAF1020F48D0A1
:101B6C00B2F80090568802F10408AB6C26F0010222
:101B7C000F215846D718FFF747FF874237D829F06F
:101B8C0001023A44824294BF00220122760006F000
:101B9C00020309F0010943EA0903012B47D0022B88
:101BAC0031D0002BCBD114B1002A40F0CA8008F1FF
:101BBC000402D2F80090B9F1000FCED1584605A915
:101BCC00029F00F057FA0028B9D1002FB3D00F2193
:101BDC005846FFF719FF0E2102465846FFF73AFF09
:101BEC000F215846664AFFF735FF0720A8E7002269
:101BFC00CCE7566802F10808B7E7090203240591FF
:101C0C008DF81D3088E7D8F8006026F00043002CD2
:101C1C0044D122B1019A002A5AD0002B58D0002E60
:101C2C0001DA08F10408013308EB8302C1E7ECB9CF
:101C3C00CAB1D8F80430D8F80020991C4FEAD272F7
:101C4C003FF47DAF05F158010133049100F08C8015
:101C5C0008F10400FFF7BEFD04AB01462846AFF3C4
:101C6C000080002857D108F10802A2E70D21584640
:101C7C00FFF7CAFE2B6A8342F5D1AB6A9845F2D1C5
:101C8C004046FFF7E1FC0F2102465846FFF7E2FE03
:101C9C002A4600215846FFF7DDFEA6E70D215846DF
:101CAC000393FFF7B1FE2A6A039B8242B7D1AA6A5B
:101CBC009045B4D100270422C5E90B724244AB62B3
:101CCC006A63D8F80020BA4256DB01220292AAE7D6
:101CDC00039400261C4608F1040905F158070DE091
:101CEC0048460497FFF776FD0022014604AB2846D0
:101CFC00013609F10409AFF30080E8B9A642EFD12F
:101D0C000D215846FFF780FE0346049A0620C5E9CC
:101D1C0009282B6214E704460D215846FFF774FE80
:101D2C00022CDDF81090286224D12B4643F82C9F0E
:101D3C000620C5E9093803E72346D8F80060039C60
:101D4C006DE74046FFF780FC08F104020446AA63E5
:101D5C002846AFF3008000283FF4F1AE22460F2155
:101D6C005846FFF777FE40E7894658460D21FFF7A6
:101D7C004BFE28624B46DBE7581C08EB800080E7E3
:101D8C00000000000023FFF7B1BE00BF0123FFF7E6
:101D9C00ADBE00BF0223FFF7A9BE00BF2DE9F04383
:101DAC00064615461C46C3B0042900F2CD80DFE878
:101DBC0001F0AC51CB2A0300002C40F0C580102A56
:101DCC0000F2C2800368DC0600F1E38020AF3846E5
:101DDC00FEF708FA012438460023B16B04FA03F22B
:101DEC002A4203F1010305D00A4652F804CB1146EE
:101DFC00C0F800C0042B00F10400EFD13846B163E9
:101E0C00FEF7E6F995E0032C40F09E8094B204EBCB
:101E1C001243102B4FEA124500F2968003681F07FD
:101E2C0000F1BF8020AF3846FEF7B0F9B26B07EB7C
:101E3C00C50154B10B4601EBC401D01AE4001D5886
:101E4C0043F8045B8B42FAD122443846B263FEF766
:101E5C007BF96EE0012C4FEA124895B26DD0052C3F
:101E6C0072D108EB0509B9F1200F6DD8B8F10F0F3D
:101E7C006ED8B9F1100F036800F29B80D90708D512
:101E8C00304623F0010343F0020340F8483BFEF7D1
:101E9C004FF920AF3846FEF74BF9B36B002D00F02D
:101EAC00B5806D006A1E002507EBC80101320439AC
:101EBC0003EB820253F8040B934241F8040FF9D15F
:101ECC00002D00F09D804146102938BF10216F462F
:101EDC006B001039013B07EBC1010133043902EBF4
:101EEC00830352F8040B9A4241F8040FF9D1012CE8
:101EFC0000F08480B8F10F0FB26302D820A8FEF76F
:101F0C0013F93846FEF718F913E0ECB9234601240F
:101F1C00816B371D90B204FA03F202421CBF51F8D8
:101F2C00042B47F823200133102BF4D1A80400D440
:101F3C00B163002043B0BDE8F08308EB0503102B20
:101F4C0002D8B8F1100F14D1022043B0BDE8F083D1
:101F5C00002DEED003685A075CD46F463846FEF766
:101F6C00EFF8B26B6B00A8F11001013B07EBC1015C
:101F7C00B3E70368DA0759D420AF3846FEF7D0F838
:101F8C00B36B002D8DD104333846B363FEF7C4F820
:101F9C00CFE723F01003036000F5E870FEF722F999
:101FAC0014E723F00803036000F5A870FEF7EEF8C1
:101FBC0038E7D90708D523F0010343F0020340F8B2
:101FCC00483BFEF7B5F83368580706D5304623F082
:101FDC00040340F8D03BFEF7B3F820AF3846FEF7C9
:101FEC00A7F86846FEF7ACF8C8F110025200B36BC4
:101FFC00A9F11005013A07EBC80157E720AFC2E77A
:10200C00012CC0D0B8F10F0FB36392D83846FEF74D
:10201C008BF88EE76F4623F0040340F8D03BFEF7B5
:10202C008FF83846FEF78CF8B26B9BE7304623F0FE
:10203C00030340F8483BFEF773F89DE7027A03462A
:10204C007AB9427AA2B14FF0030C4168013A42725C
:10205C0008680A1D5A60020283F808C0000E1A6054
:10206C0070470068013A1A7202021A60000E70473B
:10207C00B02070472DE9F0434FF0000806460D469E
:10208C0085B02846FFF7DAFFB028044600F0DC8064
:10209C00070647D500F0F003802B5FD0B02B74D02F
:1020AC001BD8902B00F09C80A02B12D1C3434FF473
:1020BC007F6203F007031A41010702F47F6201D526
:1020CC0042F48042002330461946FFF767FE002891
:1020DC00D7D0092005B0BDE8F083C02B6ED1C6283F
:1020EC0000F09480C72800F0B48000F0F803C02BF7
:1020FC0000F0C980C82800F0D480C928E9D128464E
:10210C00FFF79CFF0523044601213046220304F00F
:10211C000F0402F470220C442243FFF73FFE002808
:10212C00AFD0D6E78300DBB21F1D00230DF10C09E5
:10213C0019460D223046CDF80090FFF74DFC039B5D
:10214C0060064CBFDF1BFF1800230D2230461946DA
:10215C00CDF800900397FFF765FC92E72846FFF750
:10216C006DFF24022043B0F5004FB2D000230401D0
:10217C0019463046A2B2FFF711FE0028A9D114F47B
:10218C00004F18BF4FF001087BE7B12852D0B2289E
:10219C0000F0AC80B3286ED000F0FC03B42B98D0C8
:1021AC00012300F007021A443046194642F400227B
:1021BC00FFF7F4FD00283FF464AF8AE700F0F80362
:1021CC00D02B86D100F007020132052301213046C5
:1021DC0042F40022FFF7E2FD00283FF452AF78E70B
:1021EC0000F00D030D2B3FF474AF002303AF194621
:1021FC0000F00F0200973046FFF7EEFB00230D2294
:10220C00304619460097FFF70DFC3AE72846FFF7D2
:10221C0015FF04460323220304F00F0402F470227A
:10222C000134304619462243FFF7B8FD00283FF42D
:10223C0028AF4EE72846FFF701FF431EDBB20E2BFB
:10224C0002467FF63FAF44E7B8F1000F3ED00020C6
:10225C0040E72846FFF7F2FE431EDBB20E2B024688
:10226C003FF637AF002304213046FFF797FD0028D7
:10227C003FF407AF2DE72846FFF7E0FE01230446A5
:10228C001946304642E7032300F00F020132304674
:10229C00194642F42022FFF781FD00283FF4F1AEED
:1022AC0017E72846FFF7CAFE0246012102F0F004A8
:1022BC0002F00F0210340A440523304642EA04327D
:1022CC00FFF76CFD00283FF4DCAE02E703AC43469D
:1022DC0041460E2230460094FFF77EFB43460F2208
:1022EC00414630460094FFF79DFBB0E700230DF10B
:1022FC000C090D2219463046CDF80090FFF76CFB07
:10230C002846FFF79BFE02064FF00207039C0BD5F5
:10231C0000F07F00B840044428460394FFF78EFE7B
:10232C00030607F10707F3D4002300FA07F204F5BC
:10233C0001742244039230460D221946CDF80090C8
:10234C00FFF770FB9DE600BF0A44914200F1FF339A
:10235C0000D1704710B511F8014B914203F8014FB1
:10236C00F9D110BDF8B500BFF8BC08BC9E4670474B
:0C237C00F8B500BFF8BC08BC9E467047D6
:1023880002030405060708090A0B0C0D0E0F1010AE
:10239800000000000000000001020304060708090D
:1023A80001970181B0B00884000000000197018105
:0823B800B0B008840000000031
:1023C000B8F1FF7FE4FFFF7FD0F1FF7FE8FFFF7FE1
:1023D000DEF1FF7F010000001CF3FF7FB0A9028047
:1023E000A8F3FF7FB0B0A880F8F3FF7F01000000E2
:1023F00000F4FF7FB0B0AA8034F4FF7FAE71B280EA
:102400000CF5FF7FAB3F38806CF5FF7F01000000CB
:102410007CF5FF7FB0B0AA80B4F5FF7F010000001B
:1024200058F6FF7FAA0DB280D0F6FF7FB0AF0880CC
:1024300060F9FF7F0100000070F9FF7FAD3F02806F
:1024400008FCFF7F0100000038FCFF7FB0AD048076
:0824500004FFFF7F0100000002
:042458002103000854
:04245C00F902000879
:0C24600010000000010000000024F40047
:04000005080015B129
:00000001FF
